:020000040100F9
:1088000000000121993103016D3103011D31030184
:108810006D3103016D3103016D3103016D310301D0
:108820006D3103016D3103016D3103016D310301C0
:108830006D3103016D3103016D3103016D310301B0
:108840006D3103016D3103016D3103016D310301A0
:108850006D310301C92C03016D3103016D31030139
:10886000494103016D310301492A03016D310301BF
:10887000252F03016D3103016D3103016D310301BA
:108880006D310301712D03013D2C0301752F03018F
:108890006D3103016D3103017D2D03016D31030144
:1088A000352F0301452F03016D3103016D310301A4
:1088B0006D3103016D310301000000000000000074
:1088C00000000000000000000000000000000000A8
:1088D0000000000000000000000000000000000098
:1088E0000000000000000000000000000000000088
:1088F0000000000000000000000000000000000078
:108900000000000000000000000000000000000067
:108910000000000000000000000000000000000057
:108920000000000000000000000000000000000047
:108930000000000000000000000000000000000037
:108940000000000000000000000000000000000027
:108950000000000000000000000000000000000017
:108960000000000000000000000000000000000007
:1089700000000000000000000000000000000000F7
:1089800000000000000000000000000000000000E7
:1089900000000000000000000000000000000000D7
:1089A00000000000000000000000000000000000C7
:1089B00000000000000000000000000000000000B7
:1089C00000000000000000000000000000000000A7
:1089D0000000000000000000000000000000000097
:1089E0000000000000000000000000000000000087
:1089F0000000000000000000000000000000000077
:108A0000DEE61E284CBBCE8F023500003C00000085
:108A1000281B0300010000000088000100880001FD
:108A2000FFFF0291000000000000000000000000B5
:0C8A30000000000000000000000000003A
:108A4000002070470388F7B5A3F57C4306460C4623
:108A5000032B4DD8DFE803F00212204391F9000008
:108A600000F0AAFA04460120318822F001FA18B178
:108A700000F8054922F0A8F901203AE0CB788A787D
:108A8000207802EB0322497892B22BF0C1F908B1A9
:108A90000024E8E71224E6E7CA798B79497903EBE9
:108AA00002232279E07802EB0122A178657801EBBC
:108AB00000212078E77A00EB0520A57A9BB205EB30
:108AC0000725ADB20195657A247A92B204EB0524AC
:108AD000A4B2009489B280B22CF00CFAD7E70878DF
:108AE0002BF038FA0028D5D060782BF04FFACEE77B
:108AF000002003B0F0BD00002DE9F047A54D86B081
:108B0000A5482AF061FE284624F04EF8302205F1EF
:108B10000C0102202AF06CFE302205F13201012006
:108B20002AF066FE302205F1390106202AF060FEA7
:108B30001022ADF8042008228DF8062020220B23F5
:108B4000ADF8082080224FF0040840F20D112B717F
:108B5000EB8BADF80C206A7B1C338DF80E208DF862
:108B60001220ADF814302A7FEB7EADF810101344BC
:108B700095F822200DEB0801134495F823200520D9
:108B800013448DF816308DF80A8029F0B5F980B2BB
:108B900029F080FA29F020FB29F08CFC00F068F91C
:108BA00029F088FA074629F08BFA06467A4828F019
:108BB000F7FB32463946404603F0D0FB07EB00098D
:108BC000A6EB000A044652464946404602F028FFFA
:108BD0000444AAEB000209EB0001404603F020F830
:108BE00000EB0408284624F003F8AC7E4744A6EBCB
:108BF000080634B13146384624F038F904460744B3
:108C0000361A3146384624F0ECF8361A07448146C5
:108C10003146384624F0FBF8361A074431464444BE
:108C20008046384624F017F9361A074431464C443A
:108C30008146384624F0FDF84444311A80463818FD
:108C400024F034F94C444444044428F0AFFB02F0CF
:108C5000F1FB00F025FC02F07FFA01F03DFA02F092
:108C600097FB01F007F801F025F801F0DFFB2BF08E
:108C70000DF901F053FF02F0EFF801F07DFC01F077
:108C80003DFD03F043FB454829F09AFA29F072F8BC
:108C900024F0A0F824F000F924F0F0F824F0B0F863
:108CA00024F0F3F824F008F924F00DF924F09BF8EF
:108CB00024F0F4F824F0FCF824F0C4F824F0B2F81E
:108CC00024F0A7F824F006F924F0C7F824F0B3F84C
:108CD00024F0CAF824F0EEF8314829F071FA23F0B4
:108CE0008DFF304829F06CFAAA8CE98B28F05EFCE5
:108CF00023F0E4FA23F0EEFB23F09CFB23F00EFBC1
:108D000023F0F8FB23F06CFB23F0FAFA23F0D2FBFC
:108D100023F072FC23F0E2FA23F0ACFB23F00EFB0D
:108D200023F080FB23F058FC23F042FC23F038FBB7
:108D300023F016FB23F024FB23F042FB23F018FC66
:108D4000194829F03DFA23F0E7FB23F0DDFD174831
:108D500023F0AEFA2046002429F09CF901A80194E2
:108D6000ADF8084024F0B8F8042168462AF0ECFE7B
:108D7000684627F025F801214FF4003024F054F91B
:108D80000B4829F039FA29F043FA204606B0BDE82D
:108D9000F08700BF3001002120010021951D030153
:108DA00089CC0201D915030179CB0201458A000162
:108DB000418A0001014B1878704700BF000007206E
:108DC000014B1970704700BF000007200120704759
:108DD0000122014B1A6070470420014138B5C400DC
:108DE000343420462EF0B0FE054618B1224600214C
:108DF0002EF0E1FE284638BD2DF0AEBE70B50E4611
:108E0000CAB1541EA0B229F06FF9054698B12246A6
:108E1000711C2EF0A9FE3378022B0ED0052B05D045
:108E2000012B08D100212A46084602E02A460321E8
:108E3000002028F029FC002070BD2A460121F7E718
:108E4000C30703D5024B58682DF03CBD704700BFE7
:108E5000B001002148F29C63C360044B436003F2FD
:108E60004E33036020238360002070470480072076
:108E70001FB56846FFF7EEFF0298FFF7AFFF044CFF
:108E800020600298FFF7AAFF606004B010BD00BF29
:108E9000B001002130B5294B8BB004AC93E803003E
:108EA000002284E803002649072029F08BFE25488C
:108EB00029F0A4FE06A8FFF7CDFF20462EF030FBD8
:108EC000099B2148214C43612EF00CFB224620498E
:108ED00020482EF0D3FA226893680BB102F10C03FC
:108EE00004201D4A069990601062012051601B49C0
:108EF000BDF820400D684968156091611849079DCB
:108F00008861022053619481D362D5619484CA62DE
:108F10000022886213480862009213482EF09CF8E1
:108F2000124B134A0293134B0F4901934FF0FF3337
:108F3000114800932DF08AFD0BB030BDAC8B0301BE
:108F4000418E0001B48B0301000000216C0100215F
:108F50008C8B0301968B030144020021B001002198
:108F600078020021388C0301B8010021F98D00013D
:108F70009E8B0301FD8D000170010021022907B5C0
:108F8000184603F1FF3310D1042100F8011C012120
:108F900008480A4401910092D0E909122DF0C8FC5A
:108FA00003B05DF804EB28F0EDBA01290CBF0221F3
:108FB0000521EAE770010021024B83F87A000020C6
:108FC000704700BFC84000212AF0F0BB1FB5012345
:108FD0008DF80430002301A8CDE902332AF064FBA8
:108FE00005B05DF804FB1FB5002301A8CDE90133EE
:108FF00003932AF059FB05B05DF804FB2DE9F0411D
:109000001D46846A07460E46904628F089FA637B1F
:109010000544022B0DD0032B0DD0012B00D1283598
:1090200030683C694319A34208D900203460BDE888
:10903000F0811835F4E705F5A875F1E77B68241A87
:109040005BB14146986828F071FA844228BF044613
:10905000A54202D933681C44E7E7601B4FF47A74D9
:10906000034B1B689B885C43A04228BF2046DEE779
:10907000B04300212DE9F04104468846866A2AF073
:109080003DFE05460146A06828F050FA60B9A36885
:10909000214F7B6728F044FA2844A060796F284666
:1090A00028F044FAC6F8D000D6F89C300BB1204620
:1090B000984700232046A26806F1D001FFF79EFFE3
:1090C000074618B9BDE8F04128F0FEB9124DA36873
:1090D00040466B672AF05CFA104BC5F88470AB67AA
:1090E0000F4B05F17800EB67A368C5F88030A360EB
:1090F0002AF0D2FA002385F87030D6F8943043B1C4
:10910000FFF764FFD6F890002721BDE8F0412AF070
:109110001BBBFFF768FFF5E7CC050021AD9300010D
:10912000B59100012DE9F0410E4607462AF0E6FD13
:109130001E4C8046616F28F0F9F93546336C0344C4
:1091400045F8403FC4F8748028F0EAF92946034600
:1091500042463846FFF752FF054628B3736A5BB1B3
:10916000024641463846984730B10122BB6A83F82F
:10917000C0200020BDE8F081676F28F0D1F93844A5
:10918000C4E920050A482AF087FA002384F87030E1
:10919000736833B1FFF71AFF272130682AF0D4FA39
:1091A000E7E7FFF720FFF7E70120E3E7CC05002121
:1091B000440600212DE9F04F87B09A469DF84030D3
:1091C00003910293934606462AF098FD744F386047
:1091D00028F074F9DDE90231846A8046D4F8BC5085
:1091E000B946ADB194F8C020012A11D1CDE900A350
:1091F0000A465B463146D4F8B000A847012804D19E
:109200000023C4F8B03084F8C03007B0BDE8F08F58
:10921000644A654D92F87070781C82F870006FB1E6
:10922000022F7CD0AC8C2AF069FDD9F80030C01A2E
:10923000844240F2AB80A88CA884E6E776B1F31EA6
:10924000DBB2012B8EBF012000200127042E4CD160
:109250006B6801336B60002F3DD194E084F8C3103C
:1092600084F8C4303246C4E932BAD4F8900004F12C
:10927000D80304F1780102F0EDF9002847D0404608
:10928000D4F8A030D4F890109847002800F08580DA
:109290006F8C2AF033FDD9F80030C01A87421DD9EF
:1092A000688C94F8C1306884ADF81030D4F89430EC
:1092B0000593FFF78BFE012104A82AF027FAD4F8C2
:1092C000A4301BB14046D4F8901098472B68013366
:1092D0002B60002EA6D02AF067FA11E02AF00EFDCE
:1092E000D9F80030C01A80B2DBE701D8032E10D0C5
:1092F000EB690133EB61002F45D016F0FB0FEAD08C
:1093000028F0ECF8002839D028F0EEF88AE701269A
:10931000DCE7AB680133AB60002FF1D133E02EB155
:10932000F31E012B16D9002701201AE03246D4F88B
:10933000980004F1D80304F1780102F08BF928B108
:109340004046D4F8AC30D4F8981098472B690133D4
:109350002B61C0E700214046D4F8AC309847012784
:109360000020042E06D0C3D8032EC1D1AB6901332F
:10937000AB61D1E76B6901336B616CE7404604F187
:109380009001FFF7CFFE0028BED14BE72AF0B6FCD4
:10939000D9F80030C01A80B24EE701268FE700BF2F
:1093A00050050021CC050021A80200212DE9F84339
:1093B00081462AF0A3FC374E306028F07FF8856A9A
:1093C0000746D5F8B83083B195F8C020012A0CD1F2
:1093D0004946D5F8B0009847012804D10023C5F8C4
:1093E000B03085F8C030BDE8F8832B4B2B4C93F898
:1093F000708008F10102B8F1010F83F870202FD1BD
:10940000B9F1000F42D13846D5F8A830D5F89410FC
:10941000984790B1B4F820802AF070FC3368C01AE5
:10942000804527D9238C2384FFF7DDFD2721D5F83C
:1094300098002AF0AFF94FF00008E3680133E360C9
:10944000B8F1000F0CD02AF0AFF928F047F828B98E
:10945000384605F19001FFF765FE08B128F044F8A1
:10946000E58C2AF04BFC3368C01A854208D9E08CA1
:10947000E084B8E72AF042FC3368C31A9BB2D2E713
:109480002AF03CFC3368C01A80B2F1E7E36901338B
:10949000E361E3E750050021CC050021A80200218B
:1094A00008B50220054A064901F0FEFFBDE8084064
:1094B0002822002103482EF07EBB00BFC98F000187
:1094C00075900001A802002130B50446044D0FCD6F
:1094D0000FC40FCD0FC495E8030084E8030030BD2E
:1094E000A80200211FB5002301A8CDE90133039391
:1094F0002AF0DAF805B05DF804FB1FB501238DF8FA
:109500000430002301A8CDE902332AF0CDF805B0DC
:109510005DF804FB70B50546866A08462AF038F8FF
:10952000114C124B04F17800A367114BE367D6F896
:10953000AC30C4F88430AB68C4F88030AB602AF03B
:10954000ABF8002384F87030D6F8903043B1FFF7C1
:10955000D4FFBDE8704040F2011106482AF0F4B88B
:10956000FFF7C0FFF5E700BFCC05002151980001CF
:109570001D9C0001D002002170B50546866A084690
:109580002AF006F80D4C0E4B04F17800E367D6F88C
:109590009830C4F88430AB68C4F88030AB602AF0EF
:1095A0007BF8002384F87030FFF79CFFBDE8704023
:1095B00040F2011103482AF0C7B800BFCC050021D2
:1095C000C9950001080400212DE9F74F0E469DF8CA
:1095D00030109A460192009105462AF08FFB7C4F8D
:1095E000DFF8FC91386027F069FFDDE9001299F897
:1095F00070308046D0F828B0764C73B1032B7BD006
:10960000258C2AF07BFB3B68C01A854240F2DA8049
:10961000208C208403B0BDE8F08F85B1EA1ED2B261
:10962000012A8EBF012200220123042D4ED1616840
:1096300001316160002B54D1002A54D1E0E70323AB
:109640008BF89D600126CBE9282A89F870308BF8C9
:109650009E102A46DBF890305F498BF8A860984747
:1096600070B30090584629F093FF009B09F17800F1
:109670005344C9F880302AF00FF8A68B2AF03EFB3D
:109680003B68C01A864215D9A08BA083FFF72AFF3A
:1096900040F2011150482AF057F84046DBF8943068
:1096A0004E499847B0FA80F6760923680133236063
:1096B000A6B9A5E72AF022FB3B68C01A80B2E4E70E
:1096C0004046DBF8943044499847EEE701D8032D33
:1096D0000CD0A1690131A161002BADD015F0FB0FB9
:1096E00001D12AF061F827F0FFFE89E7A168013176
:1096F000A160002BF7D19FE7DBF890306DB1EA1E37
:10970000012A48D92A4600219847DBF894300021E5
:10971000404698470023012247E08BF89D608BF874
:109720009E102A462C498BF8A8509847064658B3F5
:10973000584629F02DFF564409F17800C9F8806099
:1097400029F0AAFFA68B2AF0D9FA3B68C01A8642F4
:1097500014D9A08BA083FFF7C5FE40F201111E486B
:1097600029F0F2FF4046DBF894301C499847B0FAE4
:1097700080F67609E3680133E36099E72AF0BEFAE0
:109780003B68C01A80B2E5E74046DBF894301249E6
:1097900098470126EEE72A4600219847DBF89430E7
:1097A00000214046984701230022042D06D090D87E
:1097B000032D8ED16169013161619AE7216901311F
:1097C000216137E72AF09AFA3B68C01A80B220E795
:1097D000500500210C05002108040021D0020021C1
:1097E000CC05002170B5164B93F870506A1C012D02
:1097F00083F8702015D1134CE1B9A68D2AF07EFABA
:10980000114D2B68C01A86420ED9A08DA085FFF796
:1098100069FE40F201110D4829F0BCFFE3680133F5
:10982000E3600025284670BD2AF068FA2B68C01A4C
:1098300080B2EBE7A36A0133A36227F055FEF1E79C
:10984000CC050021D403002150050021D0020021C5
:1098500070B504462AF052FA0B4D286027F02EFE10
:1098600021460A4CFFF7BEFF668E2AF047FA2B68A6
:10987000C01A864202D9608E608670BD2AF03EFA18
:109880002B68C01A80B2F7E750050021D4030021ED
:109890002DE9F04FDFF83CA385B09AF870500E46E2
:1098A000022D0746D346DDF838909DF83C10846AB7
:1098B00000F0C980032D00F03681002D40F0AB810F
:1098C000DFF8148396B1F31EDBB2012B8EBF0120AB
:1098D00000200125042E40F09680D8F80430013392
:1098E000C8F80430002D40F09A80A7E0C4E92D3973
:1098F00084F8B210D4F89430B34984F8B120984772
:10990000054600286ED0D4F89030002B6AD0012391
:109910008AF87030B8F82E30DFF8B4A201932AF03C
:10992000EDF9DAF80020019B801A834253D9B8F888
:109930002E30A8F82E3094F8A830ADF80830D4F8BE
:1099400090300393FFF7D9FD012102A829F0DEFE34
:10995000D4F8983013B138469B499847002D64D10C
:10996000D4F8A030002B46D0384697499847054692
:10997000002840D003238BF8703029F015FF2046D3
:1099800029F006FE4D449148CBF8805029F084FE22
:10999000B8F82C902AF0B2F98D4D2B68C01A814589
:1099A00023D9B8F82C00A8F82C00FFF79BFD40F253
:1099B0000111854829F0C8FE3846D4F8A430824900
:1099C0009847B0FA80F04009D8F800300133C8F861
:1099D000003008BB34E02AF091F9DAF80030C31AFD
:1099E0009BB2A6E729F0E0FEB2E72AF087F92B68E0
:1099F000C01A80B2D7E7D4F8A43013B13846724900
:109A000098470120E0E701D8032E10D0D8F828307D
:109A10000133C8F828308DB116F0FB0F01D129F0C1
:109A2000C3FE27F061FD01200AE00020CCE7D8F852
:109A300008300133C8F80830002DF2D10028F0D1E9
:109A400005B0BDE8F08F0325DFF88C818AF87050EF
:109A50002EB1F31E012B4ED90025012051E0C4E99F
:109A60002D3984F8B210D4F89C30574984F8B120CD
:109A70009847D4F8A030B3B33846534998470546C1
:109A800088B3204629F084FD4D440AF17800CAF8D5
:109A9000805029F001FEB8F82C902AF02FF94C4D97
:109AA0002B68C01A814518D9B8F82C00A8F82C00EA
:109AB000FFF718FD40F20111434829F045FE3846F2
:109AC000D4F8A43040499847B0FA80F04009D8F85B
:109AD00010300133C8F810307BE72AF00FF92B68FB
:109AE000C01A80B2E2E7D4F8A43013B13846364940
:109AF00098470120EBE70021D4F89C3098470125D6
:109B00000020042E09D081D8032E7FF47FAFD8F82F
:109B100018300133C8F818308EE7D8F81430013304
:109B2000C8F81430DEE6D4F8A030DFF8AC806EB1AF
:109B3000F21E012A52D900219847D4F8A4501DB131
:109B400000213846A8470025012051E01E499847CA
:109B5000054688B3204629F01BFD4D440AF17800E4
:109B6000CAF8805029F098FDB8F82C902AF0C6F871
:109B7000174D2B68C01A814518D9B8F82C00A8F8E1
:109B80002C00FFF7AFFC40F201110F4829F0DCFD7B
:109B90003846D4F8A4300C499847B0FA80F0400910
:109BA000D8F81C300133C8F81C3012E72AF0A6F8A8
:109BB0002B68C01A80B2E2E7D4F8A43013B138465B
:109BC000014998470120EBE7D0020021440600211B
:109BD00050050021CC050021D40300210021984725
:109BE000D4F8A43013B1002138469847012500204D
:109BF000042E0AD03FF60AAF032E7FF407AFD8F841
:109C000024300133C8F8243016E7D8F82030013367
:109C1000C8F8203066E6002012E700BF2DE9F341C6
:109C20000E461746984604462AF068F80F4D2860FD
:109C300027F044FC9DF8203021460D4C3246CDE9FA
:109C400000833B46FFF724FE268E2AF057F82B6848
:109C5000C01A864204D9208E208602B0BDE8F08169
:109C60002AF04CF82B68C01A80B2F5E750050021A5
:109C7000D403002108B500220620054901F014FC98
:109C8000BDE808403422002102482DF094BF00BFF7
:109C900015950001D403002130B50446044D0FCDC5
:109CA0000FC40FCD0FC40FCD0FC42B68236030BD80
:109CB000D403002108B500220920054901F0F4FB76
:109CC000BDE808402422002102482DF074BF00BFE7
:109CD000799500010C05002130B50446034D0FCDE8
:109CE0000FC40FCD0FC42B68236030BD0C050021BD
:109CF00070B50446866A084629F04AFC0F4DD6F82E
:109D0000AC3005F17800C5F88430A368C5F8803020
:109D1000A36029F0C1FC002385F87030D6F890309C
:109D200043B1FFF7EAFBBDE8704040F2011104487F
:109D300029F00ABDFFF7D6FBF5E700BFCC050021EF
:109D4000D002002129F032BD1FB5002301A8CDE9C2
:109D50000133039329F0A8FC05B05DF804FB000073
:109D60002DE9F04F85B080460E469346994627F080
:109D7000B5FB074668B93E4CD8F828A094F8723075
:109D800094F87150032B06D118B184F8723084F81E
:109D90007150012754E0022D92BF2A46033DEAB2DA
:109DA00002F125018AF80110F17E551C41FA02F2F8
:109DB0000133D2074FF00100DBB2EDB2E2D584F8F7
:109DC000723084F87150B9F1000F04D11BF0FB0F11
:109DD00001D129F0E9FC504629F0DAFBB9F1000F76
:109DE00004D0D8F80830C4F8803009E073685BB359
:109DF00029F084FF054627F093FB2844C4F880002F
:109E0000002384F87030F3681BB14046D4F880100A
:109E10009847184829F040FC736833B301238DF844
:109E20000430002301A8CDE9023329F03DFC337E44
:109E30000121ADF80430336801A8029329F03CFCFD
:109E4000384605B0BDE8F08F327E9AF80E109AF8C9
:109E50000C0026F0E4FA054627F062FB284426F0C1
:109E600045FBD4F880300344BDE7FFF76DFFDEE724
:109E7000CC050021440600210E4B0F4A10B5816A23
:109E80009A670E4A91F8AA40DA670422C3F8842040
:109E9000002283F8714083F8702083F8722090319B
:109EA0000123FFF75DFF18B1BDE8104027F00CBBA0
:109EB00010BD00BFCC050021FD9F0001C19E000127
:109EC0002DE9F74F9946064629F018FF484F494CAF
:109ED000386027F0F3FA484A856A92F87030804675
:109EE000591C012B82F8701068D105F1900B002EDF
:109EF00050D13246D5F89400C5F8AC9005F1B003C6
:109F000005F1780101F0A6FB824668B34046D5F81A
:109F1000A030D5F89410984730B3B4F81A9029F0CF
:109F2000EDFE3B68C01A814518D9608B6083FFF74E
:109F30000BFF95F8A9300121ADF80030D5F8983025
:109F4000684601934FF0000929F0E0FBD5F8A430F2
:109F5000A3B14046D5F8941098470FE029F0CEFE03
:109F60003B68C01A80B2E1E7002359461A464046D2
:109F7000FFF7F6FE8146BAF1000FE7D163680133BF
:109F80006360B9F1000F19D016F0FB0F27D027F04E
:109F9000ABFA13E0002332465946FFF7E1FE042EE8
:109FA000814617D001D8032E03D063690133636162
:109FB000E7E7E3680133E3600028E8D1A58B29F0E7
:109FC0009DFE3B68C01A85420CD9A08BA08303B0CC
:109FD000BDE8F08FA3680133A3600028EED029F01C
:109FE000E3FBD4E729F08AFE3B68C01A80B2EDE7B4
:109FF0005005002130050021CC0500212DE9FF414D
:10A00000074629F07BFE314E314C306027F056FA7E
:10A010002FB163690133636127F066FA0CE02D4BC1
:10A02000D0F8288093F8705008F190016A1C83F8EA
:10A0300070206DB1022D39D0E58B29F05FFE3368B9
:10A04000C01A85423BD9E08BE08304B0BDE8F081C3
:10A05000D8F8943023B3278B29F050FE3368C01A08
:10A06000874217D9208B01238DF8043000232083E9
:10A0700001A8CDE9023329F017FB2421D8F8940078
:10A0800029F088FB236801332360002DD4D029F008
:10A090008BFBC1E729F032FE3368C01A80B2E2E7D9
:10A0A0002B462A46FFF75CFE0546EBE73B463A4661
:10A0B000FFF756FE2369054601332361E5E729F0E2
:10A0C0001DFE3368C01A80B2BEE700BF50050021F4
:10A0D00030050021CC05002108B50320054A0649BA
:10A0E00001F0E2F9BDE808402022002103482DF0EC
:10A0F00062BD00BF459D0001799E00013005002131
:10A1000030B50446034D0FCD0FC495E80F0084E829
:10A110000F0030BD300500211FB5002301A8CDE997
:10A120000133039329F0C0FA05B05DF804FB000089
:10A130002DE9F0479A46054629F0E0FD354E364CAC
:10A14000306027F0BBF9354B876A93F870908046F2
:10A1500009F10102B9F1010F83F8702045D185BBE7
:10A160009DF82030D7F8A01087F8D130C7F8D4A0D8
:10A17000D7F8C430984788B3B4F81E9029F0BEFDD4
:10A180003368C01A814516D9E38BE383FFF7C4FF18
:10A19000022107F1A40029F0B9FAD7F8C8301BB1A1
:10A1A0004046D7F8A0109847636801336360E5B173
:10A1B00029F0FAFA17E029F0A1FD3368C31A9BB21F
:10A1C000E3E7042D1CD001D8032D09D0A36915F0B5
:10A1D000FB0F03F10103A36105D1E9E74D46E3E776
:10A1E000E3680133E36027F07FF9258C29F086FDD1
:10A1F0003368C01A854207D9208C2084BDE8F087D7
:10A20000A3680133A360D3E729F078FD3368C01A4F
:10A2100080B2F2E75005002154050021CC05002151
:10A22000F8B5CB6B06460D460BB90120F8BD0121F0
:10A23000984704460028F8D0B06A29F0A9F91148D7
:10A24000114ED0F8803078301C4484600F4C29F0D7
:10A2500023FAA78B29F052FD3368C01A87420AD926
:10A26000A08BA083FFF758FF05F12400022129F0FD
:10A2700023FA0020DAE729F041FD3368C01A80B2E2
:10A28000EFE700BFCC050021500500215405002157
:10A290002DE9FF47054629F031FD3F4E3F4C306028
:10A2A00027F00CF981462DB1A3690133A36127F092
:10A2B0001BF91AE0DFF8E880876A98F8705007F118
:10A2C000900A022D3FD0032D55D075B9D7F8A03094
:10A2D000BBB90323514688F87030FFF7A1FF05464C
:10A2E000236801332360002D53D1658C29F006FDCE
:10A2F0003368C01A854246D9608C608404B0BDE8DA
:10A30000F087012388F87030B4F81C8029F0F6FC3F
:10A310003368C01A804510D9A08B01238DF8043012
:10A320000023A08301A8CDE9023329F0BDF924213F
:10A33000D7F8A00029F02EFAD2E729F0DFFC336825
:10A34000C01A80B2E9E7032388F870300E2297F82C
:10A35000D110787BD7F8D45026F061F896350544B3
:10A3600051464846C8F88050FFF75AFF2369054612
:10A3700001332361B7E75146FFF752FF6369054692
:10A3800001336361AFE729F0B9FC3368C01A80B2CA
:10A39000B3E729F009FA8AE75005002154050021A6
:10A3A000CC050021F0B51C4B1C4C866AA3671C4BE6
:10A3B00085B0E3670423C4F8843000230F460546C4
:10A3C000A4F8703027F08AF8014600BBD6F8CC30EC
:10A3D0000BB128469847384629F0DAF8AB680025D3
:10A3E0001048C4F8803084F8705029F055F9D6F838
:10A3F000A03073B1012301A8CDE902558DF80430D6
:10A4000029F052F9022106F1900029F055F905B022
:10A41000F0BDFFF781FEF5E791A20001CC05002118
:10A4200031A1000144060021FFF7BCBF08B500229E
:10A430000720074901F038F800220820054901F0FB
:10A4400033F8BDE808402422002103482DF0B3BBB7
:10A45000A5A3000129A400015405002130B504463C
:10A46000034D0FCD0FC40FCD0FC42B68236030BD3B
:10A470005405002129F09AB92DE9F0410F461E46F6
:10A48000054629F03BFC244CDFF8948094F87030AA
:10A49000C8F80000013384F8703027F00FF800236B
:10A4A000826AD4F88C10C2F89C6082F8A070C4F85C
:10A4B0008C30D2F898302A46984727F00FF818B118
:10A4C00029F072F927F010F8032D144C11D0042D47
:10A4D00013D0B5B9236801332360258B29F00EFC16
:10A4E000D8F80030C01A85420FD9208B2083BDE8F0
:10A4F000F081A3680133A360EFE763680133636011
:10A50000EBE7236901332361E7E729F0F7FBD8F88C
:10A510000030C01A80B2E9E7CC050021780500219F
:10A520005005002170B50446866A084629F030F8C7
:10A530000F4D104B05F17800EB67A368C5F880302C
:10A54000D6F89030C5F8843029F0A6F800232046CC
:10A5500085F87030D6F89430984726F0BFFF30B1B8
:10A5600026F0ACFF18B1BDE8704026F0BDBF70BD4D
:10A57000CC05002179A4000108B50C20054A064944
:10A5800000F092FFBDE808401C22002103482DF096
:10A5900012BB00BF75A4000125A5000178050021AC
:10A5A0002DE9FF41194E0D46A6F888100221C6F884
:10A5B0008C00044601A8CDE902239DF828708DF88F
:10A5C000041029F071F896F8703003B137B12946BC
:10A5D000204629F0B9F804B0BDE8F0810C4E0D4FCB
:10A5E000B6F8148029F08AFB3B68C01A804506D96A
:10A5F000B38A29462046B38229F0CCF8EBE729F04C
:10A600007DFB3B68C31A9BB2F3E700BFCC0500217A
:10A61000780500215005002170B50C460546074E0F
:10A6200029F0C2F82046C6F8805028F0B1FF06F1A4
:10A630007800BDE8704029F02FB800BFCC0500219C
:10A6400029F0B4B870B5044629F058FB144A154DEA
:10A6500092F870302860013382F8703026F02EFFB7
:10A66000836A2146104CD3F894309847E36801334D
:10A67000E36026F033FF18B129F096F826F034FF96
:10A68000668B29F03BFB2B68C01A864202D9608B8F
:10A69000608370BD29F032FB2B68C01A80B2F7E7E7
:10A6A000CC050021500500217805002170B5044635
:10A6B000866A084628F06CFF0E4D0F4B05F17800B6
:10A6C000AB67A368C5F88030A36028F0E5FF0023DE
:10A6D000204685F87030D6F89030984726F0FEFE78
:10A6E00030B126F0EBFE18B1BDE8704026F0FCBE9C
:10A6F00070BD00BFCC05002145A6000108B50D20A6
:10A70000054A064900F0D0FEBDE808401C220021A1
:10A7100003482DF050BA00BF41A60001ADA60001CC
:10A72000780500212DE9FF4105460E4693B102212F
:10A7300002928DF8041001A8039328F0B5FF124B84
:10A7400093F870304BB93146284628F0B5FF04B075
:10A75000BDE8F081CDE90133EDE70C4C0C4FB4F8C6
:10A76000168029F0CBFA3B68C01A804506D9E38AE7
:10A7700031462846E38228F0C9FFE8E729F0BEFA0F
:10A780003B68C31A9BB2F3E7CC0500217805002192
:10A790005005002130B50446034D0FCD0FC495E898
:10A7A000070084E8070030BD780500211FB50123AC
:10A7B0008DF80430002301A8CDE9023328F074FF9E
:10A7C00005B05DF804FB00002DE9F04105460E469A
:10A7D00026F074FE836A1B780A2B0BD1124B93F878
:10A7E00070303BB9FFF7E2FF31462846BDE8F04143
:10A7F00028F062BF0D4C0E4FB4F8168029F07EFA97
:10A800003B68C01A804509D9E38AE382FFF7CEFF8F
:10A8100031462846BDE8F04128F078BF29F06EFAAD
:10A820003B68C31A9BB2F0E7CC05002194050021D8
:10A830005005002170B50C4E04460D46C6F88C003C
:10A84000A6F8881026F03AFE836A1B780B2B0AD1F3
:10A8500096F870303BB9FFF7A9FF29462046BDE8BE
:10A86000704028F071BF70BDCC05002130B50446A2
:10A87000034D0FCD0FC495E8070084E8070030BDF5
:10A880009405002170B50D46044628F08FFF094B52
:10A89000D3F88C1039B100222046C3F88C20022254
:10A8A000D5F8AC3098472046D5F8A430BDE87040C4
:10A8B000184700BFCC0500212DE9F04104460D46A4
:10A8C000876A26F00BFE0646D8B9284628F060FEB7
:10A8D0000D4D0E4B05F17800AB670D4BEB67A36890
:10A8E000C5F88030A3600423C5F8843028F0D4FE76
:10A8F000D7F8983085F870601BB12046BDE8F0416C
:10A900001847BDE8F08100BFCC05002115A9000162
:10A91000E9A900012DE9F04385B0074629F0EEF9D9
:10A920002E4E2F4D306026F0C9FDD0F828903946C4
:10A93000D9F8A83080469847D5F88C10294C0029C2
:10A940003AD057BBA78A29F0D9F93368C01A874291
:10A950001DD9A08A0023A08201A8CDE90133039369
:10A9600028F0A2FEB5F88810D5F88C0028F012FF68
:10A97000E3680133E360658B29F0C0F93368C01ADE
:10A98000854213D9608B608305B0BDE8F08329F060
:10A99000B5F93368C01A80B2DCE700230222C5F89B
:10A9A0008C304046D9F8AC30984708E029F0A6F939
:10A9B0003368C01A80B2E6E70FB928F0F5FE95F8C3
:10A9C000703023B926F090FD012385F87030002FF8
:10A9D000CED0236901332361CDE700BF50050021AC
:10A9E000CC050021940500212DE9F3470C460546CE
:10A9F00029F084F9DFF82081C8F8000026F05EFD18
:10AA00000023876A9DF8282087F8B040404C8DF8D5
:10AA10000730D4F88C1087F8B120C4F88C302A465F
:10AA2000D7F8AC300646984726F058FD81460028F6
:10AA300038D04FF0010926F051FD40EA090919F01C
:10AA4000FF0F10D0062D06D80123AB4013F0510F95
:10AA500001D028F0A9FE94F8703023B926F044FD07
:10AA6000012384F870309DF8073023B92946304619
:10AA7000D7F8A0309847032D264C35D0042D37D079
:10AA8000002D39D1236801332360258B29F036F955
:10AA9000D8F80030C01A854232D9208B208302B00A
:10AAA000BDE8F0873046D7F890300DF107019847A0
:10AAB00082460028BDD028F077FED7F894300DF1FB
:10AAC000070130469847B06A28F062FDD4F880004C
:10AAD0005044C4F8800004F1780028F0DDFD3046D1
:10AAE000D7F89C309847A6E7A3680133A360CCE76A
:10AAF000636801336360C8E7236901332361C4E7F6
:10AB000029F0FCF8D8F80030C01A80B2C6E700BFC0
:10AB1000CC050021940500215005002108B50A202C
:10AB2000054A064900F0C0FCBDE808401C2200218F
:10AB300003482DF040B800BF85A80001B9A8000166
:10AB40009405002170B50D46044628F02FFE094BF0
:10AB5000D3F88C1039B100222046C3F88C20022291
:10AB6000D5F8AC3098472046D5F8A430BDE8704001
:10AB7000184700BFCC05002101232DE9F041876A69
:10AB8000054687F8B03083680846C7F8B8300E4CE1
:10AB90000E4628F0FDFC0D4B04F17800A3670C4B2A
:10ABA000E367D7F8B830C4F88030D7F8C030C4F8BD
:10ABB000843028F071FD0023284684F87030D6F8E0
:10ABC0009830BDE8F0411847CC0500214DAD00019B
:10ABD00025AC0001F8B50B680C4611460646174631
:10ABE00098470546C8B128F0DFFD3946636830460E
:10ABF0009847B06A28F0CCFCA36A09482B44A362AA
:10AC0000B360C0F88030236B7830C36028F044FD17
:10AC10003046E36898470020F8BD0120FCE700BFFC
:10AC2000CC0500212DE9F3471F468846054629F04B
:10AC300065F8DFF814914FF0000AC9F8000026F01B
:10AC40003DFC9DF82830846A15F0FB0F84F8BD3078
:10AC500094F8B03084F8BC8018BF8768012B04BF1B
:10AC60000023C4F8B470C4F8B870354F08BF84F836
:10AC7000B030D7F88C102A46D4F8AC30C7F88CA086
:10AC800005F0FD0806469847B8F1010F8DF807A0BA
:10AC900040D126F023FC38B930460DF1070204F10B
:10ACA0009001FFF797FF80469DF8073023B92946AA
:10ACB0003046D4F8A030984726F010FC40EA080847
:10ACC00018F0FF0F10D0062D06D80123AB4013F06B
:10ACD000510F01D028F068FD97F8703023B926F0A5
:10ACE00003FC012387F87030032D164C14D0042D7B
:10ACF00016D0CDB9236801332360258B28F0FEFFE1
:10AD0000D9F80030C01A854212D9208B208302B0B6
:10AD1000BDE8F087D046CFE7A3680133A360ECE736
:10AD2000636801336360E8E7236901332361E4E783
:10AD300028F0E4FFD9F80030C01A80B2E6E700BF7F
:10AD4000CC05002194050021500500212DE9F34197
:10AD5000054628F0D3FF3D4E306026F0AFFB876AF2
:10AD60002946D7F8A8300446984700238DF80730C5
:10AD700026F0B4FB002835D120460DF1070207F17B
:10AD80009001FFF727FF80467DBB26F0A7FB40EA36
:10AD9000080818F0FF0F0BD028F006FD2C4B93F895
:10ADA00070302BB926F0A0FB0122294B83F87020CC
:10ADB0009DF8073023B929462046D7F8A030984798
:10ADC000244C002D37D1E3680133E360658B28F014
:10ADD00095FF3368C01A854231D9608B608302B019
:10ADE000BDE8F0814FF00108CEE7012D14D1B8F194
:10ADF000000FDDD0164BD3F88C10984639B10023E4
:10AE00000222C8F88C302046D7F8AC30984728F09A
:10AE1000CBFC98F87030C4E70D4BD3F88C109846F3
:10AE20000029F6D000230222C8F88C302046D7F83B
:10AE3000AC309847EDE7236901332361C6E728F07A
:10AE40005DFF3368C01A80B2C8E700BF500500211B
:10AE5000CC0500219405002108B50B20054A0649C0
:10AE600000F022FBBDE808401C22002103482CF022
:10AE7000A2BE00BF45AB000179AB000194050021E3
:10AE80001FB501238DF80430002301A8CDE902335A
:10AE900028F00AFC05B05DF804FB00002DE9F04144
:10AEA00005460E4626F00AFB836A1B78042B0BD15D
:10AEB000124B93F870303BB9FFF7E2FF314628465A
:10AEC000BDE8F04128F0F8BB0D4C0E4FB4F81680E9
:10AED00028F014FF3B68C01A804509D9E38AE38251
:10AEE000FFF7CEFF31462846BDE8F04128F00EBC02
:10AEF00028F004FF3B68C31A9BB2F0E7CC050021A1
:10AF0000B00500215005002170B50C4E04460D46D9
:10AF1000C6F88C00A6F8881026F0D0FA836A1B7851
:10AF2000052B0AD196F870303BB9FFF7A9FF2946E7
:10AF30002046BDE8704028F007BC70BDCC0500215C
:10AF400030B50446034D0FCD0FC495E8070084E8E3
:10AF5000070030BDB005002170B50D46044628F04D
:10AF600025FC094BD3F88C1039B100222046C3F8D8
:10AF70008C200222D5F89C3098472046D5F8943092
:10AF8000BDE87040184700BFCC05002170B50546EC
:10AF900008460E4C0E4628F0FBFA0D4B04F17800E3
:10AFA000A3670C4BE367AB68C4F88030AB60042345
:10AFB000C4F8843028F070FB0023284684F87030F1
:10AFC000D6F89030BDE87040184700BFCC0500218E
:10AFD0008DB00001D9AF000170B50C46054628F0D0
:10AFE0008DFE274E306026F069FA9DF81030826A97
:10AFF00082F8A130234B82F8A04093F8701011B969
:10B00000012183F870100024D3F88C10C3F88C4011
:10B01000D2F89C302A46984726F060FA50B1062DA7
:10B0200006D80123AB4013F0510F01D028F0BCFB30
:10B0300026F05AFA032D144C0FD0042D11D0A5B9C7
:10B04000236801332360258B28F058FE3368C01A2B
:10B0500085420ED9208B208370BDA3680133A36085
:10B06000F1E7636801336360EDE72369013323612E
:10B07000E9E728F043FE3368C01A80B2EBE700BF6F
:10B0800050050021CC050021B00500212DE9F04339
:10B0900085B0064628F032FE2C4D2D4C286026F057
:10B0A0000DFAD0F828903146D9F8983007469847DD
:10B0B000284BD3F88C10984600293CD066BBA68A52
:10B0C00028F01CFE2B68C01A86421FD9A08A0123D3
:10B0D0008DF804300023A08201A8CDE9023328F0C6
:10B0E000E3FAB8F88810D8F88C0028F053FBE3682E
:10B0F0000133E360668B28F001FE2B68C01A86429C
:10B1000013D9608B608305B0BDE8F08328F0F6FDAD
:10B110002B68C01A80B2DAE700223846C3F88C20C8
:10B120000222D9F89C30984708E028F0E7FD2B6808
:10B13000C01A80B2E6E70EB928F036FB26F0D4F943
:10B14000002ED4D0236901332361D3E750050021B9
:10B15000B0050021CC05002108B50420054A0649A8
:10B1600000F0A2F9BDE808401C22002103482CF0A1
:10B1700022BD00BF59AF00018DAF0001B005002115
:10B1800070B50D46044628F011FB094BD3F88C101E
:10B1900039B100222046C3F88C200222D5F8A03015
:10B1A00098472046D5F89830BDE87040184700BF52
:10B1B000CC0500212DE9F0410446876A08460E4D72
:10B1C0000E4628F0E5F90D4B05F17800AB670C4B06
:10B1D000EB67A368C5F88030A360D7F89030C5F856
:10B1E000843028F059FA0023204685F87030D6F8CC
:10B1F0009430BDE8F0411847CC050021C1B20001F0
:10B2000005B200012DE9F04188461F46054628F0A9
:10B2100075FD284E306026F051F99DF81830846A8B
:10B22000254A84F8A93092F8703084F8A88023B9B0
:10B230000123C4F8A47082F870300023D2F88C1077
:10B24000C2F88C302A46D4F8A030984726F046F948
:10B2500050B1062D06D80123AB4013F0510F01D099
:10B2600028F0A2FA26F040F9032D144C10D0042D3A
:10B2700012D0ADB9236801332360258B28F03EFD41
:10B280003368C01A85420FD9208B2083BDE8F08136
:10B29000A3680133A360F0E7636801336360ECE700
:10B2A000236901332361E8E728F028FD3368C01AD9
:10B2B00080B2EAE750050021CC050021B00500214D
:10B2C0002DE9F04385B0804628F018FD2D4D2E4E17
:10B2D000286026F0F3F8D0F828904146D9F89C3041
:10B2E00007462A4C9847B8F1000F29D1D6F88C3080
:10B2F0000BB3A78A28F002FD2B68C01A874214D925
:10B30000A08A01238DF804300023A08201A8CDE992
:10B31000023328F0C9F9B6F88810D6F88C0028F066
:10B3200039FAE3680133E3601AE028F0E7FC2B68A0
:10B33000C01A80B2E5E728F037FA26F0D5F8F0E732
:10B34000D6F88C1039B100230222C6F88C3038466A
:10B35000D9F8A030984726F0C7F823690133236154
:10B36000668B28F0CBFC2B68C01A864204D9608B10
:10B37000608305B0BDE8F08328F0C0FC2B68C01ADC
:10B3800080B2F5E750050021CC050021B005002171
:10B3900008B50520054A064900F086F8BDE80840D2
:10B3A0001C22002103482CF006BC00BF81B1000123
:10B3B000B5B10001B0050021816A034B0A7853F84A
:10B3C000323003B118477047CC050021816A044B25
:10B3D0000A7803EBC2035B6803B11847704700BFEC
:10B3E000CC05002128F0ECB928F0D0B808B528F039
:10B3F000CDF8BDE80840002028F0DCB908B528F0F9
:10B40000B7F8002028F0D4F9BDE80840012028F062
:10B41000D1B908B528F0ACF8BDE80840002028F004
:10B42000C7B908B528F0A4F8BDE80840012028F005
:10B43000BFB9000073B5134C134D144E28F096F8A5
:10B44000224629460120124B009626F075F8224626
:10B45000294602200F4B009626F06EF80E4B22462E
:10B46000009300210D4B032026F066F801200C49C3
:10B4700026F070F8902200210A4802B0BDE8704022
:10B480002CF099BBCDB30001B9B30001E9B30001C1
:10B4900023B4000113B40001EDB30001FDB30001BA
:10B4A000E5B30001CC050021034B43F8301003EB5A
:10B4B000C0035A60704700BFCC0500212DE9F0435E
:10B4C00004468C46D3E9000116461D46177885B020
:10B4D000002C3CD0FFB14FF000094FEA112E0EF0C6
:10B4E000C008B9F1000F08BFB8F1400F13D1BCF18B
:10B4F000000F05D000F034FD204605B0BDE8F08314
:10B5000000F09EFC044608B10124F5E7204AD38BE5
:10B510000133D383F0E702460B46384600F0A4FD22
:10B520000238C0B20128EFD80DF10F030093307834
:10B53000D5E9002300F034FC18B19DF80F30002B42
:10B54000DAD1134A0224138B01331383D4E73FB1BA
:10B550004FEA112C0CF0C002002C08BF402AD3D0B7
:10B5600002460B46384600F07FFD02380128CBD852
:10B570000DF10F0300933078D5E9002300F010FCA3
:10B580000028DED09DF80F30002BBDD1D9E700BFD9
:10B590005C0600212DE9F041884616461F46044608
:10B5A00058B156EA07030E4D0AD100F079FF012881
:10B5B00006D10446EB880133EB802046BDE8F081DC
:10B5C00032463B46404600F0EDFE20B9AB880224EF
:10B5D0000133AB80F1E7EB880133EB80EDE700BF8F
:10B5E0005C06002137B5DDE9065410B9002003B030
:10B5F00030BDE2B10023200A00F0C002002B08BFDA
:10B60000402A14D129B1284621460AAB08AA00F0E5
:10B61000FBFCDDE90A232846CDE9002321469DF8FD
:10B62000202000F053FC003818BF0120DFE79DF810
:10B630002000DDE90A2300F028FD0238C0B201280D
:10B64000D4D8034A0220538B01335383CFE700BF82
:10B650005C0600212DE9F04F90F800A089B0079218
:10B660000A880AF00F0A42FA0AF212F0010283462F
:10B6700088461C46744D05D12B8801332B804FF032
:10B68000000A0CE04FF4C0766A8846FA0AF60132E6
:10B6900016F0010643786A8005D04FF0010A504643
:10B6A00009B0BDE8F08F03F03F03637484F810A085
:10B6B00010F8027B26F0FCFBC7F38017E774A77431
:10B6C000C4E90201C4E90001D8F80400079904F1B3
:10B6D000080304F11302C0F38010FFF7EFFE012806
:10B6E000814602D00228CAD0B146D4E90223D8F854
:10B6F0000470E67C17F0040135D0D8E904018B42D0
:10B7000008BF824203D1C7F3C007BE4226D002273A
:10B71000298901312981B8F80200314640FA0AF03E
:10B7200000F00100FFF736FFB84224D2D8F8041029
:10B7300048071DD5D4E90267D8E904239F4208BF12
:10B74000964204D1E37CC1F3C0018B420DD02B891A
:10B7500001332B81B9F1010F1CD190E769890127D1
:10B7600001316981D7E70F46D5E76B8901336B81DA
:10B770004FF001090EE0B8F80200E17C40FA0AF04F
:10B7800000F00100D4E90223FFF704FF0128EFD9FC
:10B790000228DFD084F814904FF00109BAF1050FA8
:10B7A00084F815903FF679AF09FA0AFA1AF02A0FD1
:10B7B0003FF473AF584610F808AB26F079FBD4E994
:10B7C000022306460F46CDE90423D8F80400E37CA3
:10B7D0004FEADA1A5246CDE9006707990293C0F39F
:10B7E0000010FFF7FFFE01283FF457AF02283FF497
:10B7F00046AFD8F80410CA077FF54FAFD8E9022347
:10B80000BB4208BFB24203D1C1F34003534517D036
:10B81000AB890133AB81BAF1000F3FF430AF0020A8
:10B820003E0A06F0C002002808BF402A7FF427AF76
:10B830008B067FF524AF2B8C01332B8460752EE7AC
:10B84000EB890133EB8128E75C0600212DE9F04FFD
:10B8500081461C46088899F810308846184110F037
:10B8600001009346664D89B005D12B8801332B80AA
:10B8700009B0BDE8F08F6B8801336B80D9E90023F4
:10B88000C4E90223C4E9002399F8123004F1130239
:10B89000E374A374486804F108035946C0F38010A8
:10B8A000FFF70CFE0128824603D002283AD04FF061
:10B8B000000AD4E90223D8F80460E77C16F00401FA
:10B8C00037D0D8E904018B4208BF824203D1C6F3C6
:10B8D000C006B74228D0022629890131298199F86A
:10B8E0001010B8F80200084100F001003946FFF7D7
:10B8F00051FEB04225D2D8F804104E071ED5D4E927
:10B900000267D8E904239F4208BF964204D1E37C32
:10B91000C1F3C0018B420ED02B8901332B81BAF1C8
:10B92000010F1ED10020A3E7698901260131698139
:10B93000D5E70E46D3E76B8901336B814FF0010ADF
:10B940000FE099F81030B8F80200E17C184100F0DF
:10B950000100D4E90223FFF71DFE0128EED90228D9
:10B96000DDD084F814A04FF0010A84F815A099F8EE
:10B970001130980701D401207AE7D8F8043099F8FB
:10B9800013200693E37CD4E902010293069BCDE9E0
:10B990000401D9E902675946CDE90067C3F30010F5
:10B9A0000792FFF71FFE01283FF462AF0228079AB3
:10B9B000B8D0D8F80430D907DDD5D8E90201B942AA
:10B9C00008BFB04203D1C3F34001914213D0A9890B
:10B9D0000131A981002AA5D000223E0A06F0C0004C
:10B9E000002A08BF40289DD19B069BD52B8C013394
:10B9F0002B846275BFE7EB890133EB81BBE700BFA6
:10BA00005C060021054B03F1240253F8041B93420A
:10BA100040F8041BF9D11B88038070475C060021A5
:10BA200030B500240B4B11F0030F1C700A4B0B4D6B
:10BA30001C701C460EBF0B4621F0030304332B6021
:10BA400003EB00135B1A934296BF2070002098B25C
:10BA500030BD00BF8206002183060021840600213C
:10BA6000F0B5164600221F460D4B9DF814C01978FC
:10BA70000C4B1B68914201D80020F0BD1C7A844217
:10BA800008D1D3E90045BD4208BFB44202D15C7A77
:10BA9000644502D001321033ECE70120EDE700BF2E
:10BAA0008206002184060021014B1878704700BFF0
:10BAB000830600210022014B1A7070478206002184
:10BAC00030B50B490B4D09782C78A1420DD90A49A4
:10BAD000096801EB041108720120C1E900239DF8F7
:10BAE0000C3001344B722C7030BD0020FCE700BFDD
:10BAF0008306002182060021840600212DE9F043FF
:10BB000090461A4A00211768194E3A4699469DF800
:10BB10001CC03378CCB2A34201D8002020E0147AB4
:10BB200084421FD1D2E900454D4508BF444519D193
:10BB3000547A644516D1012B03F1FF340ED0A14293
:10BB40000CD003F18053013B07EB0313197A1172F8
:10BB5000D3E90001C2E900015B7A5372012034701D
:10BB6000BDE8F08301311032D4E700BF8406002124
:10BB700082060021F0B543EA00470C4B164693F8C5
:10BB800000C00B4B1A680023D9B28C4501D80020A5
:10BB90000AE01046D0E90845BD4208BFB44203F1AF
:10BBA000010302F14802EFD1F0BD00BF8C06002175
:10BBB0009006002130B585B005460C4610220021C4
:10BBC00068462BF0F8FF6A462846ADF8004011465B
:10BBD000240C8DF8024027F0D9FE9DF802309DF824
:10BBE00001001B0443EA00239DF80000184305B040
:10BBF00030BD13B5042104460DEB010027F0A4FF6E
:10BC000001992046C1F3150141F480010191FFF72C
:10BC1000D1FF019940EA0160090A02B010BD00009D
:10BC200030B500240A4B0B4D1C708B072C700EBFD7
:10BC30000C4621F003031C1D074B1C60482303FB2B
:10BC40000043591A914296BF2870002088B230BD37
:10BC50008C0600218D06002190060021014B186002
:10BC6000704700BF88060021014B1878704700BF5D
:10BC70008D0600210022014B1A7070478C060021AE
:10BC8000F8B5074616461D46FFF774FF044680B90F
:10BC90002E4B2F4A197812788A4201D80020F8BD1D
:10BCA00048242C4A106804FB010401311970002C4F
:10BCB000F4D0224645EA0745069BC4E9086503F12E
:10BCC000100153F8040B8B4242F8040BF9D1012305
:10BCD00004F10F0284F84030631E13F8011F71B3A2
:10BCE000002384F8403004F110000246079B03F162
:10BCF000100153F8045B8B4242F8045BF9D1012335
:10BD000084F84130034604F1200213F8011BC9B145
:10BD1000002384F8413000230022C4E90A23C4E947
:10BD20000C23C4E90E230023A4F8423094F84130D8
:10BD30001BB9FFF75EFFC4E90C010120AFE79A428F
:10BD4000CBD1D0E79A42E0D1E5E700BF8C060021D5
:10BD50008D0600219006002138B5FFF70BFF78B162
:10BD6000084D2C78012C08D9482202FB04F306491F
:10BD7000483B096819442BF0F7FE0120013C2C7068
:10BD800038BD00BF8C0600219006002108B5FFF7E2
:10BD9000F1FE20B19DF8083080F84330012008BD45
:10BDA00008B5FFF7E7FE20B190F843200120029B81
:10BDB0001A7008BD08B5FFF7DDFE40B1D0E90A23CF
:10BDC00052EA030104D001200299C1E9002308BD11
:10BDD0000020FCE708B5FFF7CDFE40B1D0E90C2309
:10BDE00052EA030104D001200299C1E9002308BDF1
:10BDF0000020FCE708B5FFF7BDFE28B1029BD3E9A0
:10BE00000023C0E90C23012008BD10B5FFF7B2FEE6
:10BE1000044698B190F8403083B990F8423033B975
:10BE2000FFF7E7FE0123C4E90A0184F84230029BD0
:10BE3000D4E90A01C3E90001012010BD0020FCE79C
:10BE40004FF0000CF7B5064660460F461B4991F8C7
:10BE500000E01B4909685FFA8CF4A64512D818B3B4
:10BE600018490C683CB31848418C01314184D3E92E
:10BE70000001CDE900013046137839460122A04780
:10BE8000002011E091F840408CB9D1E90A45BD424B
:10BE900008BFB4420AD1C88C00F001001070086AD3
:10BEA0008A8CC3E90002012003B0F0BD01200CF12F
:10BEB000010C4831CFE72046F6E700BF8C06002191
:10BEC00090060021880600215C0600212DE9F34739
:10BED000DDE90A891546064642464B4628460F4686
:10BEE000FFF748FEE8B190F84140D4B9D0E90E23FD
:10BEF000BB4208BFB24216D00C4BD3F800A0BAF137
:10BF0000000F0AD00A4A3046938C39460133938495
:10BF10002B462246CDE90089D047204602B0BDE835
:10BF2000F0870024F9E70124F7E700BF8806002125
:10BF30005C06002138B504461046DDE904230D46B1
:10BF4000FFF718FE48B190F841303BB9D0E90E2315
:10BF5000AB4206BFA2420120002038BD0020FCE712
:10BF60002DE9F74F0F4606461D464FF000084FF0EB
:10BF7000480B010E41EA0721DFF888A0009221F06A
:10BF80007F411E4B5FFA88F41B78A34205D81C4AF8
:10BF90000020138A0133138229E0DAF800300BFB0A
:10BFA000043494F84090B9F1000F23D1D4E90A2366
:10BFB000BB4208BFB24210D020460191FFF7FAFD04
:10BFC00026F07F438342019914D10D4AC4E90A67E0
:10BFD000538A84F84290013353820120E38C009A03
:10BFE00003F001031370226AA38CC5E9002303B098
:10BFF000BDE8F08F08F10108C3E700BF8C060021FF
:10C000005C06002190060021D0B50F461146D3E909
:10C01000002306460878FFF7ADFD0446E0B190F82E
:10C020004130CBB9D0E90E23BB4208BFB24211D098
:10C03000310E41EA072121F07F411030FFF7BAFDB0
:10C0400026F07F43834207D1064AC4E90E67D38AAC
:10C050000133D382012004E00020024A938A013395
:10C060009382D0BD5C06002108B5FFF783FD48B17F
:10C07000D0E90A23134306D190F84030002B14BFB7
:10C080000120022008BD0320FCE708B5FFF772FD80
:10C0900048B1D0E90C23134306D190F84130002B6E
:10C0A00014BF0120022008BD0320FCE72DE9F04168
:10C0B00000254FF04808124E124F3378ECB2A342DD
:10C0C00001D8BDE8F0813B6808FB043494F84130A6
:10C0D0002BB904F11000FFF78CFDC4E90C0194F8B2
:10C0E00040303BB994F8423023B12046FFF781FD40
:10C0F000C4E90A01012384F844301D44DDE700BF90
:10C100008C0600219006002108B5FFF733FD034699
:10C1100020B1002290F8440083F8442008BD08B5FF
:10C12000FFF728FD003818BF012008BD1FB5002308
:10C1300001A8CDE90133039327F0B6FA05B05DF805
:10C1400004FB000038B50C460E4D0F4BAB670F4B90
:10C15000EB678368C5F880308360D1F8903008467B
:10C16000C5F8843027F014FA05F1780027F094FA26
:10C17000FFF7DCFFB4F89C10D4F89800BDE8384015
:10C1800027F0E2BACC05002129C2000191C10001CB
:10C19000F8B5044625F092F9856A14F0FB0F2146A4
:10C1A000D5F8943020D19847F8B127F0FDFA1B4B11
:10C1B0001B4E1B689F7827F0A1FDD5F890303844BE
:10C1C000C6F880002846C6F8843027F0E1F906F169
:10C1D000780027F061FAFFF7A9FFB5F89C10D5F8B1
:10C1E000980027F0B1FA02E0984725F07DF9032C7A
:10C1F0000C4B06D0042C08D05CB91A6801321A60C6
:10C20000F8BD9A6801329A60FAE75A6801325A60BA
:10C21000F6E71A6901321A61F2E700BFB043002164
:10C22000CC05002194060021F7B5054625F046F916
:10C230001C4E0746846A25BB27F0B6FA29463846C5
:10C24000D4F89030984700B3174DB4F89A20D5F839
:10C25000803020461344C5F8803027F099F905F165
:10C26000780027F019FAFFF761FFB4F89830012140
:10C27000ADF80030D4F894306846019327F01CFAEA
:10C2800006E02946D4F89030984725F02DF925B9D5
:10C29000F3680133F36003B0F0BD336901333361F8
:10C2A000F9E700BF94060021CC05002137B50C4604
:10C2B0000F4D104BAB67104BEB678368C5F88030B0
:10C2C0008360084627F064F905F1780027F0E4F967
:10C2D000FFF72CFFB4F898300121ADF80030D4F806
:10C2E00094306846019327F0E7F903B030BD00BFF2
:10C2F000CC05002129C2000191C1000108B527F039
:10C3000055FABDE8084025F0EFB8000010B5094C1B
:10C31000002022460849FFF7C7F8224601200749B6
:10C32000FFF7C2F8BDE810401C22002104482BF0A2
:10C3300042BC00BFFDC20001ADC2000145C1000109
:10C340009406002130B50446034D0FCD0FC495E887
:10C35000070084E8070030BD9406002130B50024B2
:10C360000C4B0D4D1C700D4B11F0030F1C702C70FD
:10C370001C460CBF0B4621F00303094D18BF0433C4
:10C380002B6003EBC0035B1A934296BF2070002022
:10C3900098B230BDB1060021B0060021B2060021DE
:10C3A000B406002130B5144643EA0045084A094B5B
:10C3B00012781B6803EBC202934201D1002030BD0A
:10C3C000F3E80201A94208BFA042F5D10120F6E737
:10C3D000B1060021B4060021014B1878704700BF58
:10C3E000B20600210023024A1370024A13707047FC
:10C3F000B1060021B006002170B5064615461C4660
:10C40000FFF7D0FF80B9094B094A197812788A42A0
:10C410000BD9084A44EA0644126802EBC10042F80C
:10C420003150013144601970012070BDB106002106
:10C43000B2060021B4060021F0B51646104A114D8F
:10C44000126843EA004714462B7802EBC30E74458A
:10C4500001D1002013E0A446DCE90001B94208BF85
:10C46000B04204F10804F2D1012B05D902EBC3025A
:10C4700052E90201CCE900010120013B2B70F0BD23
:10C48000B4060021B10600210122014B1A70704749
:10C49000B00600210022014B1A707047B00600213F
:10C4A000014B1878704700BFB006002137B504462D
:10C4B00023F064FD0022144B9C42144B0CBFDA7035
:10C4C0001A7194F8423003F0FD03012B01D123F0DF
:10C4D00065FD20460BF0F0FE04F1280528460DF11D
:10C4E000070125F021FE40B9303420460DF1070147
:10C4F00025F01AFE20B903B030BD25F0FDFDEDE7B3
:10C5000025F0FAFDF1E700BFB00D0021C03F00218A
:10C51000154A38B5154C164B106851681D6804F162
:10C520003C0303C304F1480029790BF0EDFF01201F
:10C5300024F04EFF23F01AFD01220E4DEA7094F80C
:10C54000422002F0FD02012A01D123F01FFD0BF071
:10C55000D5FE00200123687184F8C031A4F8BE31F3
:10C56000BDE8384023F0ADBC8C400021B00D002167
:10C57000AC0D0021C03F0021054BDB7833B1012316
:10C58000044880F899309C3025F034BB704700BFD8
:10C59000C03F0021B00D0021002023F092BC0C20F0
:10C5A00023F08FBC08B5012024F028FFBDE8084027
:10C5B0000148FFF77BBF00BFB00D002108B5012087
:10C5C00024F01CFF0348FFF771FFBDE8084000207E
:10C5D00023F077BCB00D0021FFF7E4BF044B054901
:10C5E0001A6852F8043F0B6053684B60704700BFF5
:10C5F000AC0D00218C40002108B5084B08481B6891
:10C60000197990F888308B4202D048300BF07CFFCB
:10C61000BDE80840002023F054BC00BFAC0D002151
:10C62000B00D002110B50446012024F0E7FEA37BE5
:10C6300003F0FD03012B01D123F0B0FCD4F8C802B4
:10C6400020B125F059FD0023C4F8C832D4F8D00237
:10C6500020B125F051FD0023C4F8D032034AD3782D
:10C66000013BD370BDE8104023F088BCC03F0021DF
:10C6700038B50C46054600210E2220462BF09BFAC9
:10C68000204695F8C03200F8023BD5E9B22325F0E8
:10C6900016FC95F8C132637095F808332372D5F80B
:10C6A0004C21064BA2FB0301C20F42EA4102628108
:10C6B00095F850310120237338BD00BFE3361A00CE
:10C6C00038B504460F4D0120651B24F097FE281154
:10C6D000E3680D4D45430BB1A8B29847281DC0B281
:10C6E00024F0CCFC94F858320BB123F067FC23F013
:10C6F00045FCD4F8440208B125F0FEFC0023237069
:10C7000038BD00BFC8180021D1581F1A38B50446DB
:10C71000012024F05DFEA37B03F0FD03012B01D17A
:10C7200023F034FC002320466370A370A4F8083281
:10C7300084F83C300CF02AFA054620B920460CF06B
:10C7400037FB054640B1284623F018FD2046BDE8DA
:10C75000384003210CF00CBD074AD3780133D37065
:10C7600023F004FC0123284684F86830A4F86630DE
:10C77000BDE8384023F002BDC03F0021002023F077
:10C78000FDBC000030B4027C0121022A18BF002247
:10C790000C4C8170657895420AD190F8082222B934
:10C7A00000F5037030BC25F025BA00F54A70F9E7B2
:10C7B00001FA02F2217821EA02022270032130BC40
:10C7C0000CF0D6BC780F0021002023F0D7BC00006D
:10C7D00010B5094C6378012B04D9BDE810400C203A
:10C7E00023F0CCBC04F1600025F07BFE04F1700066
:10C7F000BDE8104025F075BE800F0021034B5B782B
:10C8000013B10C2023F0BABC704700BF800F002189
:10C81000024B587800B10C2023F0B0BC800F0021EF
:10C8200008B5FFF7FFFE044B5B7823B1BDE8084075
:10C83000002023F0A3BC08BD800F002138B51E4B9B
:10C8400001201C6824F0C4FD23790BB123F0AEFB5A
:10C8500023791A4D2B72D4E90223C5E90423E37925
:10C86000AB72A3796B72637D2B760CF0C9FFD8B1E4
:10C870002862237980F85832A37980F85932E37915
:10C8800080F85A32D4E90223C0E99823238A628AC5
:10C89000A0F850320A235343C0F854320B2343729A
:10C8A00063798371237DC371286A0CF033FDBDE881
:10C8B000384023F05BBB00BF6C2B0021302B0021E4
:10C8C000034B5A78012A04BF00225A70704700BFF8
:10C8D000302B0021084B186A90F843220AB9012234
:10C8E00002715B78012B03D1C3702C3025F082B923
:10C8F00005210CF057BC00BF302B002130B50F4C88
:10C9000085B06378012B07D10025206AC3700571BB
:10C910002C3025F06FF965706946206AFFF7A8FE94
:10C92000216A074B6A46C91A064B091159433E2032
:10C9300089B223F059FC05B030BD00BF302B002177
:10C94000C8180021D1581F1A30B52D4C85B0637816
:10C95000206A012B04BF00236370FFF7B1FE256A34
:10C960002B7973B10E22002168462BF024F925495A
:10C970006A466D1A24492D116943442089B223F077
:10C9800033FC256A95F84332ABB1217A11F00101ED
:10C9900013D10E2268462BF00EF91A496A466D1A19
:10C9A00019492D1169431A2089B223F01DFC002278
:10C9B000236A83F8432205B030BD182025F094FB8C
:10C9C00001460028F3D040F20B134380D4E904233E
:10C9D000C0E90223A37AC371637A8371237A037156
:10C9E000236A9A794271B3F85022D3F85432028202
:10C9F0004382237E4375054B187B25F086FBD6E7E3
:10CA0000302B0021C8180021D1581F1A00400021E6
:10CA10002DE9FF413D4B1D680CF0F2FE0446002855
:10CA200070D00027012024F0D3FC84F8587295F8C8
:10CA30002030DFF8E08084F8593295F82130344E08
:10CA400084F85A32D5E90A23C4E9982395F82330AB
:10CA5000404684F808334FF47A73C4F854320C23F8
:10CA60003461A91D6372A4F8507217F009F840F2FE
:10CA7000E243B8F804205343C4F84C3195F8203011
:10CA800084F8C03295F8213084F8C132DB07D5E94B
:10CA90000A01C4E9B2011DD54FEA112C0CF0C00205
:10CAA000002F08BF402A15D100220023CDE9022320
:10CAB00002AB0DF107028DF80770FFF751FA48B18C
:10CAC0009DF8073043F0020384F8C132DDE9022308
:10CAD000C4E9B22330690CF01DFC23F047FAAB889F
:10CAE000288BB3806B8B7080F380AB8B33812B8E64
:10CAF000738195F822303373EB8BF3810CF0FEFCDD
:10CB000005F06CFC04B0BDE8F08100BF6C2B002187
:10CB1000582B0021702B002170470000012310B515
:10CB2000054C2069C3702C3025F064F821693E2043
:10CB3000BDE810400CF0B8BE582B0021034B18691B
:10CB400001232C3000F8293C25F054B8582B002143
:10CB5000044B1869C378012B04BF0023C370FFF78F
:10CB6000AFBD00BF582B00211FB5437A04460B2BE5
:10CB70000ED16946FFF77CFD09480A49241A2411A1
:10CB800061436A46002089B223F02EFB04B010BD39
:10CB90000C2BFBD1014600200CF086FEF6E700BF0F
:10CBA000C8180021D1581F1A01232C3000F82A3C44
:10CBB00025F020B8FFF784BD012310B5044683702B
:10CBC0002C3025F017F804F52C7025F08AFC054868
:10CBD000201A054C00116043BDE8104080B223F0DC
:10CBE0002ABB00BFC8180021D1581F1AF8B5057913
:10CBF000C28815B1012D18D0F8BD4FF444735343CA
:10CC00000E490688CC18B4F880214088921B8242D5
:10CC1000F2DCD4E95E6703F51E73C4E99E67C818A9
:10CC200023F004FA84F87051E6E74FF44470034BA4
:10CC300000FB0233002283F8D821DDE7C818002169
:10CC400008B523F09BF90022054B5A70054B93F869
:10CC500021301BB1BDE8084023F0A0B908BD00BFDA
:10CC6000C03F0021C840002108B5012024F0B0FBDE
:10CC700023F07CF90122074B5A70074B93F82130BF
:10CC80000BB123F083F90CF01FFFBDE80840002032
:10CC900023F008B9C03F0021C840002108B5012099
:10CCA00024F096FB23F062F90122064B5A70064BE2
:10CCB00093F821300BB123F069F9BDE808400CF07E
:10CCC00003BF00BFC03F0021C8400021054B5B7877
:10CCD00033B10123044880F829302C3024F08ABF76
:10CCE000704700BFC03F0021B82B0021002023F077
:10CCF000D9B80C2023F0D6B82DE9F0415A4B8AB0B0
:10CD00005B78002B00F08780584C94F82860002E48
:10CD100000F08480D4F8EC80B8F1000F79D00122C3
:10CD200004F5847304F1D0014046FEF793FC0646F7
:10CD3000602025F0D9F90546002800F0908000F128
:10CD40000807384608F1020117F07FF8384617F057
:10CD5000D9F800B196B9284625F0CEF9042025F07F
:10CD6000C3F9014630B14FF441734380404B187B07
:10CD700025F0CBF9012024F041FB4AE00023AB7001
:10CD8000D4F84831AB6394F81B6185F83C6094F8A3
:10CD90001A31B34207D1D4E94401D4E9422399427C
:10CDA00008BF904203D046F0020685F83C600020A0
:10CDB000D4E944230021C5E91223C5E9140194F8FC
:10CDC0001B0194F81A11884207D1D4E94467D4E9C9
:10CDD00042018F4208BF864203D0D4E94201C5E92F
:10CDE000140195F83C0013F0CDFA0028B3D1214B83
:10CDF0002946D3E91C23C5E9162394F82A3085F87F
:10CE0000410085F83D300123EB87194B187B25F055
:10CE10007CF9FFF715FF0AB0BDE8F081154C0CF066
:10CE200093FF257C012DA5D13146242201A82AF0AB
:10CE3000C2FE43F60543ADF806303C238DF80830BA
:10CE4000A37C0DF10E008DF80D30D4E906238DF88A
:10CE50000C5025F034F801A823F01CF88AE7002EC6
:10CE60003FF47CAFD5E700BFC03F0021B82B0021C5
:10CE700000400021C840002108B5012024F0BEFA7E
:10CE8000FFF7DEFE0CF060FFBDE80840002023F055
:10CE900009B808B5012024F0B1FAFFF7D1FEBDE8CA
:10CEA00008400CF051BF0000054B30B51C68054D23
:10CEB00008340FCC0FC594E80F0085E80F0030BD93
:10CEC000AC0D0021D040002110B50446012024F013
:10CED00095FA074B1868241A0648E4104443201DAD
:10CEE000C0B224F011F8BDE8104023F047B800BFED
:10CEF000782D0021FBE14BC710B50446D0F8280976
:10CF000028B1043825F0F8F80023C4F82839D4F8FB
:10CF1000FC0728B1043825F0EFF80023C4F8FC37EB
:10CF200094F83B300BB123F039F8024A9378013B77
:10CF3000937010BDC03F002138B504461F4D01203D
:10CF400024F046FA2A682046137A84F8BC3200237B
:10CF500084F8BD3284F8BE3284F8343784F836372A
:10CF60005168C4F8C0320EF08FF8014640B16078C5
:10CF700023F070F92046BDE8384004210DF040BF91
:10CF80000F4A93780133937094F83B300BB122F041
:10CF9000FDFF2B68596851B14FF47A72636A0A3900
:10CFA000B3FBF2F304F52B70C91A25F094FA6078FC
:10CFB0000021BDE8384023F04DB900BF7C2D002191
:10CFC000C03F002138B504461C4D012024F000FA72
:10CFD0002A682046137A84F8BC32002384F8BD32D4
:10CFE00084F8BE3284F8343784F836375168C4F890
:10CFF000C0320EF049F8014640B1607823F02AF9BA
:10D000002046BDE8384004210DF0FABE2B685A686E
:10D0100092B14FF47A71636A4A4303F59C53083323
:10D02000B2FBF3F2013A534304F52B70B3FBF1F179
:10D03000BDE8384025F04FBA38BD00BF7C2D002137
:10D0400070B5134D00F52B760446304625F049FAAD
:10D050002B685A687AB14FF47A71636A4A4303F5D0
:10D060009C530833B2FBF3F2013A53433046B3FB0F
:10D07000F1F125F030FA00212B6860781B7A84F8F2
:10D08000BD1284F8BC32BDE8704023F0E3B800BFA5
:10D090007C2D002110B5044600F52B7025F021FAF7
:10D0A000002384F8BE32012384F8363710BD0021F6
:10D0B000407823F0CFB80C21407823F0CBB80000A3
:10D0C000F0B590F8343704469DB0002B34D100F50C
:10D0D0002B7025F006FA2046FFF70EFF012024F002
:10D0E0008DF994F8BC2294F8BD3222B1934224BF4A
:10D0F000432284F8BE22002294F8BE12607822F007
:10D10000F0FE238C03F01D031D2B13D10020002102
:10D110003C230022CDE90401CDE90632CDE902012C
:10D12000D4E90C0194F83A30CDE90001012160788E
:10D1300001F012FC1DB0F0BDD0F8FC77724E002F4C
:10D1400074D000F6180300F5FC6101223846FEF7A2
:10D1500081FA002800F0C780602024F0C5FF054652
:10D16000002800F0C0806378394603800023837074
:10D1700010A816F041FE391805F1080016F065FEFA
:10D18000D4F8FC37002B7BD094F82BC804F6180792
:10D1900085F83CC094F82A38634507D1D7E90201E5
:10D1A000D7E90023994208BF904203D04CF0020C0B
:10D1B00085F83CC0D7E90223C5E9122300220023E9
:10D1C000C5E9142394F82B2894F82A389A4207D1F9
:10D1D000D7E90201D7E90023994208BF904203D062
:10D1E000D7E90023C5E91423012385F83E30D4F89C
:10D1F0003037307BAB63454B2946D3E91C23C5E967
:10D20000162394F8353785F83D30012385F83F30F3
:10D2100094F8BD3285F8403094F82C3785F84130C9
:10D2200024F073FF2046FFF767FE83E7D0F82879E4
:10D23000002F91D0394608A816F0DEFD391810A845
:10D2400016F003FE00230F939DF8203004F5FC61D7
:10D250008DF8383003238DF83930DDE91023CDE91E
:10D260000A23DDE91223CDE90C23BDF82230012287
:10D27000ADF83A300AA804F51663FEF7E7FA68E756
:10D2800094F873C904F5166785F83CC094F87239B0
:10D29000634507D1D7E90201D7E90023994208BFC6
:10D2A000904203D04CF0020C85F83CC0D7E9022331
:10D2B000C5E9122300220023C5E9142394F8732939
:10D2C00094F872399A4207D1D7E90201D7E90023CD
:10D2D000994208BF904203D0D7E90023C5E914233F
:10D2E00094F8953881E76378391F27F8043C0823C0
:10D2F00007F8023C032307F8013C307B24F005FFCC
:10D30000012024F07BF815E700400021C8400021EF
:10D3100010B50446FFF7F0FD012024F06FF86078A7
:10D320000021BDE8104022F095BF10B50446FFF77C
:10D33000E3FD012024F062F82046BDE810400CF027
:10D3400065BE3C2380F8BE32012380F83637704733
:10D3500000222DE9F041D0E900EC13469046454605
:10D36000C3F12007A3F120062EFA03F10CFA07F708
:10D3700039432CFA06F6314301F0010454EA050161
:10D380001CBF81180B7203F1010318BF0132252B5A
:10D39000E5D180F82D20BDE8F081000070B504468D
:10D3A0000025012024F014F884F84E520AF058FEAB
:10D3B000A4F82851254601262B4BC4F82401D3E9B3
:10D3C0000C23E5E99A23284622F030FED4F82431D4
:10D3D000284683EA1343B4F82811A4F8983284F855
:10D3E00096620CF029FF84F84D0220460DF0AAFF4A
:10D3F000054648B1204603210DF064FF29466078B8
:10D40000BDE8704022F05DBFA37884F82161012B54
:10D4100013D194F87D290AB984F82A31D4F800642C
:10D42000B4F8FC5322F0E6FC3246294624F052FDC3
:10D430000123A4F80C0484F87E3994F854325BB1CB
:10D44000D4F80064B4F8FC5322F0D4FC32462946E8
:10D4500024F040FDA4F856026078002122F031FF4C
:10D46000BDE8704022F082BDC03F0021002140781D
:10D4700022F027BF0C21407822F023BFF8B5837833
:10D480000446012B11D190F82151012D0DD1D0F876
:10D490000074B0F8FC6322F0ADFC3A46314624F04B
:10D4A00019FD84F87E59A4F80C04012384F84E3247
:10D4B000002304F5967084F8213184F82A31BDE800
:10D4C000F84024F097BB10B590F820310446012BAA
:10D4D00004D1FFF7D3FF2046FFF7F6FC2046BDE856
:10D4E0001040FFF7D7BD10B590F820310446012B4E
:10D4F00004D1FFF7C3FF2046FFF7E6FC2046BDE856
:10D5000010400CF083BD10B50446FFF7DDFC6078D9
:10D510000021BDE8104022F0D4BE000090F8503049
:10D52000012B12D0094B1B68D3E90223C0E9A823C1
:10D53000C0E91623B0F828310633A0F8603008237C
:10D5400080F85230012380F850307047742D00214C
:10D55000D0F888390BB1407818477047D0F88C392B
:10D560000BB140781847704710B568220021044677
:10D570002AF021FB0023237010BD5030FFF7F4BFC9
:10D580002A2307B58DF803008DF804006846ADF82E
:10D5900000108DF802308DF8051022F07BFC03B0EE
:10D5A0005DF804FB2C2307B5ADF800008DF80400EE
:10D5B0006846ADF802308DF8051022F06BFC03B020
:10D5C0005DF804FB08B5012023F002FFBDE8084028
:10D5D00022F0CCBC2DE9F04F04464F4E8FB0356899
:10D5E0004FF0010805F1080739460EF037FF3946BC
:10D5F00020460EF093FF4FF0000AAB7D08F1FF3B91
:10D600005B453ED9002794F8562004F1570306E005
:10D61000D4F8943033BBC4F8949023E00137BA4275
:10D6200020D913F8011B4145F8D120460EF0CEF861
:10D6300095F84030E98E0293D5E90E23CDE9002319
:10D640000A46E96A81460EF069F9D4F89030002B59
:10D65000DED1E368C4F890900BFB03F384F89CB030
:10D66000C4F8983094F85630BB4207D194F834305F
:10D670005A1C0E3384F8342044F823A008F1010822
:10D68000BBE73168204608310EF06AFE216F04F1D5
:10D69000600024F020FF2022002106A82AF08BFA47
:10D6A0002B22ADF816200022A3782069ADF81430A3
:10D6B0008DF81930E36A8DF818200793A38A5BBAB6
:10D6C000ADF82030E38AADF82230A388ADF82430DD
:10D6D000124BA0FB0301C30F43EA4103ADF8263010
:10D6E000134604F13801503451F8040B40B140881E
:10D6F0000EAD5A1C05EB430323F80E0CD3B20122E6
:10D700008C42F1D10AB18DF8283005A822F0C2FB75
:10D710000FB0BDE8F08F00BF8C2D0021E3361A005A
:10D7200090F8BA3080F85430704710B5437804460A
:10D73000012B8AB017D181780020FFF721FF20222A
:10D74000002102A82AF037FA44F22B42ADF8062055
:10D750004422A37801A8ADF804308DF808208DF894
:10D76000093022F097FB0AB010BD082380F854302E
:10D7700070473D2380F85430704710B504460120AF
:10D7800023F03CFE20460EF0B9FB22F0F7FB94F8A4
:10D790005430A07823B1BDE810401946FFF702BF0E
:10D7A0000146BDE810401846FFF7EABEF8B5054649
:10D7B0000FF056FC044648B1284604210FF01EFC29
:10D7C00021462846BDE8F8400FF0B2BB012023F007
:10D7D000FFFD2C6DCCB1012384F82131A378012BFE
:10D7E00013D194F87D290AB984F82A31D4F8007449
:10D7F000B4F8FC6322F0FEFA3A46314624F06AFBA4
:10D800000123A4F80C0484F87E39284602210FF085
:10D810000BFCBDE8F84022F0A9BB0000F0B50446BF
:10D8200085B007200EF0AAFA064630B3144B03A9C0
:10D830001868258C0390304617F0DEFD114F063531
:10D84000ADB2D7E90C230095304417F0E8FD06226D
:10D85000314620460EF099FA94F8A030A4F8A8506A
:10D8600043F0010384F8A030D7E90C23C4E92C234A
:10D87000236D13B1002283F8B82005B0F0BD00BFBE
:10D880005C8C0301C03F002173B5044603200EF0F9
:10D8900075FA0646E0B1114B01A91868258C019074
:10D8A000304617F0A9FD0635ADB22A4694F8BA10F5
:10D8B000304417F0C6FD0622314620460EF065FAC8
:10D8C00094F8A030A4F8B85043F0020384F8A030D4
:10D8D000032120460FF0A8FB02B070BD608C03014D
:10D8E00010B50446C43024F085F92046BDE8104048
:10D8F00003210FF099BB000010B504460B4B1868CC
:10D90000201AC3100A4858430C30C0B223F0FCFA66
:10D9100020460EF0F3FA012023F070FD22F02EFBDA
:10D920002046BDE810400FF055BB00BF842D0021FC
:10D9300067EBD06F7FB50622ADF806200022C388C2
:10D940000D4DADF80430ADF80A30C37F01A88DF855
:10D950000C308DF8082022F09DFA2B784BB1074E41
:10D96000F0880FF093FC044618B9304622F092FA82
:10D970002C7004B070BD00BFC2060021B8060021A3
:10D980002DE9F0438BB0044615460E4624220021B3
:10D9900001A82AF010F926238DF8023040F2E24364
:10D9A000B4F8582294F85B1294F85A7202FB01FE04
:10D9B00002FB07F003FB0EFE94F84A9203FB00F80B
:10D9C000D4F85432B9F1010F0CBF5B19EB1A734450
:10D9D00005932369D4F850020393B4F84632B4F89F
:10D9E00006C0ADF8183094F85C3208BF40198DF8C5
:10D9F0001A3094F8643218BF281A8DF81B3094F846
:10DA0000653208BF40448DF81C30237A18BF40446B
:10DA1000ADF800C08DF803600CBF04900490ADF821
:10DA200006C08DF8046002958DF81D708DF81E10EB
:10DA3000ADF824208BB9B4F83421012B0CBFB4F815
:10DA40003431B4F830316846ADF82020ADF82230DA
:10DA500022F020FA0BB0BDE8F083B4F83021ECE7F7
:10DA600038B5054604200C4624F03EFB014650B173
:10DA7000EB88C47003800F238370034B187BBDE8D1
:10DA8000384024F042BB38BD0040002138B505467F
:10DA900004200C4624F028FB014650B1AB88C4702A
:10DAA000038001238370034B187BBDE8384024F0CA
:10DAB0002CBB38BD00400021014B9B7CC3777047D5
:10DAC000E02D0021024B1B681B79C377704700BF14
:10DAD000942D00213E23C37770470823C3777047F6
:10DAE0002223C37770470D23C3777047014B5B7CBC
:10DAF000C3777047E02D00213D23C37770470000B6
:10DB000010B50446407A0FF039FC4FF470711D4A8D
:10DB1000A388126801FB0323C27C0132C274227AFB
:10DB20003ABB94F84612032993F8462024D1013ACF
:10DB300018BF01228A1A1A4492F9A8217E2A1DD1FF
:10DB400093F85D03D0B1104A58181268032992F96E
:10DB5000202080F8A72108BF83F8AB210022D3F84A
:10DB60008C1201F00403134302D0012384F83D32E8
:10DB700010BD94F84712D6E70122DBE784F83A217A
:10DB8000F6E700BF702E00217C3F0021002210B577
:10DB900090F847300446C17F80F8472033B12229EE
:10DBA00004D1BDE810401121FFF7EABE0022204653
:10DBB000FFF7E6FEE37F442B04D116232046E377EC
:10DBC000FFF7B8FE2046BDE810400FF077BE00001A
:10DBD00038B50446808812F043F8054698B9082005
:10DBE00024F082FA014668B1A388038041F20173F0
:10DBF0004380E388C380E37F0371044B187B24F0E8
:10DC000084FAA57638BD0123A376FBE70040002106
:10DC1000F8B5044601218688C08814F0D9FB02219A
:10DC2000E08814F0D5FB607A0FF0A8FB054604F5F8
:10DC30000B7024F056FC01236376E37F3E2B0CD15E
:10DC400000276776EB7C2046013BEB740FF036FE35
:10DC50003A462046E17FFFF793FE144B1B6893F88A
:10DC60002A20134B1C680023934219D2A188B14289
:10DC700017D1657EADB9A17E99B1082024F034FAA0
:10DC8000014668B1A388038041F201734380E388B1
:10DC9000C380E37F0371074B187B24F036FAA57627
:10DCA000F8BD013304F53C74DEE700BF7C3F002182
:10DCB000982D00210040002110B50446407A0FF055
:10DCC0005DFB6378012B05D163762030BDE8104001
:10DCD00023F090BF10BD70B5054604200C46CE7FE2
:10DCE00012F088FD014648B122230370637A437025
:10DCF000A37AC6708370284612F052FD214628464A
:10DD0000BDE870400FF0EDBE034B9B7CCB77012349
:10DD100080F8C932704700BFE02D00210846052178
:10DD2000FFF79EBEFFF7D7BF012380F8C9327047C7
:10DD30002DE9FF470546487A0C460FF01FFBC37CD0
:10DD40000746002B40F04281837C002B00F01E81AF
:10DD50004179DFF86C83D34EB9B940F2E243028ACD
:10DD60005343D8F80020801ACF4A80107043CDE981
:10DD70000112FA680A300092C0B21A4623F070F815
:10DD8000002800F0038101237B71607A0FF0F6FA1E
:10DD9000B5F86411B5F86621B5F89833073101FB81
:10DDA0000323002140F2E2499BB2A4F84A10B5F8DF
:10DDB0006811A4F848309B1A4B43D8F800106A69E0
:10DDC000411A89107143008A0A3109FB032209FBB9
:10DDD00000F0C9B223F0A6F8B5F86831D4F86012A3
:10DDE00009FB03F9B14BE0641B689A8D02EB090350
:10DDF00094F85C2201FB1232E36C934280F0DD80E8
:10DE0000214607F150000FF041FCA94BC5F87833CB
:10DE1000A84BC5F87C33A84B1B681B88A380D5F89A
:10DE2000A031C4F8E830B5F8DA31A4F828320AF0A5
:10DE300017F9D5E95C23C4F8E40020460FF076FB1F
:10DE4000242012F0D7FC0146002800F095801F2303
:10DE50000370637A4370A37A837094F84632022B7E
:10DE600003D0032B14BF01230423CB7094F8473253
:10DE7000022B03D0032B14BF012304230B71B4F82E
:10DE80004C3228464B7194F84A32B4F84C22DB03EA
:10DE9000C2F30B029BB213431B128B71B4F84E32C8
:10DEA000CB71B4F84E32C3F303230B72D4F8503263
:10DEB0004B72D4F850321B0A8B72B4F8523203F012
:10DEC0000F03CB72D4F854320B73D4F854321B0ABC
:10DED0004B73B4F8563203F00F038B73B4F834313C
:10DEE000CB73B4F834311B0A0B74B4F830314B7473
:10DEF000B4F830311B0A8B7494F85C32CB74D4F8CC
:10DF000060320B75D4F860321B0A4B75B4F862327C
:10DF10008B7594F8643294F8652203F00F0343EA9A
:10DF20000213CB7594F85A320B7694F85B324B7629
:10DF3000B4F858328B76B4F858321B0ACB76E36CBF
:10DF40000B77E36C1B0A4B77B4F84E308B77E36C9E
:10DF5000CB77E36C1B0A81F82030B4F84E3081F89F
:10DF60002130B4F8483081F82230B4F848301B0A28
:10DF700081F8233012F014FC01232146284684F84E
:10DF8000473004B0BDE8F0470FF0ABBD2046FFF7C7
:10DF9000AAFD042024F0A8F8014610B904B0BDE899
:10DFA000F087A388038044F601334380434B187BFA
:10DFB00004B0BDE8F04724F0A8B8A3EB0903E3647C
:10DFC000B4F848300133A4F8483015E7607A0FF010
:10DFD000D5F9B5F86431B5F86661DA1DB5F898334E
:10DFE00040F2E24902FB03639BB29E1BA4F8483057
:10DFF00000238246B5F868114E436969A4F84A3097
:10E0000009FB0616B4F84A80BAF8103008F1010886
:10E010001FFA88F8A4F84A8008FB03F8DAF82830D9
:10E02000314609FB0838404623F080FA0028E9D041
:10E030003146404623F07AFAB5F86831D4F86022C8
:10E0400009FB03F9194BE0641B68998D01EB090387
:10E0500094F85C1202FB1131E26C8A4210D29AF8F9
:10E0600002307BBBDAF8501099B9616907F15000B2
:10E07000C91A13442161E36421460FF01CFBC4E676
:10E08000B4F84830A2EB09020133E264A4F8483046
:10E09000E2E70868496890F85C62D0F8600200FB2B
:10E0A0000633E1E7E1830F3E29F001017C3F0021C7
:10E0B00025DA010181DA01016C2E002100400021E6
:10E0C000902D0021012B0AD10023DAF850100029ED
:10E0D000CBD008684968D0F810010344F7E7002363
:10E0E000C3E700BF002310B50C46084681F847304F
:10E0F000FFF7FCFC204610F0A7FF2046BDE81040CB
:10E100000221FFF7ADBC000070B50546487A0C4609
:10E110000FF034F9384B0646D3E904329A4205D35E
:10E12000C37803B3204610F0BDFE1EE001220D218E
:10E13000284601F081F9214628460FF0DCFC002337
:10E14000204684F84730FFF7CEFC214606F1500008
:10E150000FF00CFB204610F077FF02212046BDE8AF
:10E160007040FFF77DBC10F0E5FD20460FF03EFA51
:10E17000337923B922462946304610F00FFF002399
:10E18000102084F8473012F035FB014670B321238C
:10E190000370D4F8E4304370D4F8E4301B0A837081
:10E1A000B4F8E630C37094F8E7300371E36C437160
:10E1B000E36C1B0A8371B4F84E30C3716369037258
:10E1C00063691B0A4372E38A83722369C3722369FA
:10E1D0001B0A0373638A4373B4F848308373B4F83B
:10E1E00048301B0AC373284612F0DAFA2146284643
:10E1F0000FF081FC0121B1E7E02D002170B506464A
:10E20000487A0C460FF0BAF80546214630460FF022
:10E2100072FC2046FFF764FC214605F150000FF028
:10E22000A5FA204610F010FF2046BDE870400221FC
:10E23000FFF716BC10B50C460FF05DFC204610F041
:10E2400003FF2046BDE810400221FFF709BC10B5CE
:10E250000C460FF050FC204610F0F6FE44232046FA
:10E26000E3770221BDE81040FFF7FABB40F67C429D
:10E2700038B58B8C0546043B9BB293420C4653D871
:10E280000B7E1F2B50D80B79012B4DD8CB88B3F5C3
:10E29000805F49D20B89B3F5805F45D2CB68B3F577
:10E2A000801F41D20B69B3F5801F3DD240F6FB734E
:10E2B0008A8A9A4238D8CA8A9A4235D889784B1EB7
:10E2C000012B01D904292FD1E078431E012B01D95C
:10E2D000042829D121F034FB30B394F82230013BDB
